:020000040000FA
:100000000A128A11EB2F9134F100F0013A3071029B
:1000100003180B280C28142830307102031C1128F7
:1000200012281428F001F00A700C08000310831243
:100030000313530D540DD5005508DB005B08031D59
:10004000222823282C280030D4000030D300003090
:10005000D2000030D10091285108D5005208D600B6
:100060005308D7005408D8001F300310D80CD70C01
:10007000D60CD50CFF3E031D35285508D90059086C
:10008000DA00D317FF30D105FF30D205FF30D3059A
:100090000030D4059630DB02DB1F4F2850286A2839
:1000A0005B08803A973E031856285728582823287B
:1000B00001300310D40CD30CD20CD10CFF3E031D25
:1000C00059280130D5005508DB07031D6828692829
:1000D0005828812820305B02031C6F2870287C2858
:1000E00023280130D5000310D10DD20DD30DD40D2E
:1000F000D50B73280130DB025B08031D80288128A3
:1001000071285A080319852886289128D109D2090F
:10011000D309D409D10A0319D20A0319D30A03193E
:10012000D40A08008316031386138312031386135D
:100130000A168A15E0250A128A110A128A150C205D
:100140000A128A110A168A11C4200A128A11003072
:100150000A168A1560230A128A117108831603137E
:10016000A9007008A8003B3083120313A7009F303A
:10017000A600FF30A500E530A4008316031328086D
:10018000F0002908F100F201F30100300A168A1587
:1001900046270A128A11730883120313AB007208F0
:1001A000AA007108A9007008A8000A128A159F24E5
:1001B0000A128A1183120313270883160313A3005C
:1001C00083120313260883160313A200831203135A
:1001D000250883160313A100831203132408831632
:1001E0000313A0003C30F3002330F200D730F100BD
:1001F0000A30F0002308F7002208F6002108F50075
:100200002008F4000A168A118A210A128A1173083A
:1002100083160313A7007208A6007108A5007008D2
:10022000A4002708F3002608F2002508F10024089E
:10023000F0004130F700F030F6000030F5000030FB
:10024000F4000A168A15A4260A128A11031C292909
:100250002A292E29831203138617312983120313A7
:100260008613A230EE006E0883160313CA00270817
:10027000CE002608CD002508CC002408CB00AA30EB
:100280000A128A1193210A128A11F401F40A013028
:100290000A168A15E1240A128A119130F50080307D
:1002A000F6000A168A15CA230A128A11F401F40A02
:1002B00002300A168A15E1240A128A11AA30F500C2
:1002C0000030F6000A168A15CA230A128A110D3068
:1002D00083120313EF00FB30EE00EE0B6D29EF0BE2
:1002E0006D29831603132708F3002608F20025085A
:1002F000F1002408F0004130F700F030F600003043
:10030000F5000030F4000A168A15A4260A128A1194
:10031000031C8B298C29A728831203138617A7286F
:100320000A128A11002883160313E500CB30CF0090
:100330004F08D800D42F25306C060319A029A12915
:10034000AD296C08CF00650884004F088313800036
:100350000130CF004F08E507D42FD901DA014A0850
:1003600084000A168A110A200A128A112E3A031DE5
:10037000BA29BB29002A5A170130CF004F08CA07F3
:10038000E601E701EF290A30F0000030F1008316A2
:1003900003136708F3006608F2000A168A1514238F
:1003A0000A128A11710883160313E7007008E60029
:1003B0004A0884000A168A110A200A128A11D03EBD
:1003C000CF00FF3003180030D0004F08E6070318B5
:1003D000E70A5008E7070130CF004F08CA074A086C
:1003E00084000A168A110A200A128A110A128A1136
:1003F00004200A128A110318FE29FF29C329062A9C
:10040000E601E7015A16062A5A15222A01308316F8
:100410000313CA07FF304A0784000A168A110A200C
:100420000A128A11EC00CF00D0015008003A0319DB
:100430001A2AD42F4F08003A0319E62F663A0319F7
:10044000042AD42F00305905CF0007305A05D000B8
:100450004F08500403192D2A2E2A8F2F5A1E312A95
:10046000322A362A0630E6000030E70058088400B9
:1004700083130008E800840A0008E900840A0008E1
:10048000EA00840A0008EB000430CF004F08D807C8
:100490006B08F3006A08F2006908F1006808F000D0
:1004A0000030F7000030F6000030F5000030F400B6
:1004B0000A168A15A4260A128A110318602A612ACC
:1004C0007E2A831603136B08F3006A08F20069089A
:1004D000F1006808F0000A128A1501200A128A1138
:1004E000730883160313EB007208EA007108E90031
:1004F0007008E8000330D9040030DA0483160313CF
:10050000DF01E0016B08F3006A08F2006908F100FE
:100510006808F0000030F7000030F6000030F50009
:100520000030F4000A168A1593240A128A1103185F
:100530009A2A9B2A8B2B0310831603136A0D6B0DCB
:10054000823EDF00FF3003180030E000FF30DF079D
:100550000318E00AFF30E0070330F0000030F1003C
:100560006008F3005F08F2000A168A1514230A12C5
:100570008A11710883160313E0007008DF000A3047
:10058000F7000030F8006008FA005F08F9000A126E
:100590008A1519200A128A11780883160313E000BD
:1005A0007708DF00E01FD52AD62ADC2AFF30DF07D4
:1005B0000318E00AFF30E0075F03FF3A0A128A15CA
:1005C00040210A128A118312031341088316031370
:1005D000E40083120313400883160313E30083121D
:1005E00003133F0883160313E200831203133E082C
:1005F00083160313E1006B0883120313A70083160D
:1006000003136A0883120313A600831603136908F1
:1006100083120313A50083160313680883120313C0
:10062000A40083160313640883120313AB0083161C
:100630000313630883120313AA00831603136208CB
:1006400083120313A9008316031361088312031393
:10065000A8000A128A159F240A128A118312031312
:10066000270883160313E400831203132608831656
:100670000313E30083120313250883160313E20018
:1006800083120313240883160313E1006408F300A4
:100690006308F2006208F1006108F0003F30F700E3
:1006A0008030F6000030F5000030F4000A168A159C
:1006B000A4260A128A1103185E2B5F2B682BFF30C9
:1006C00083160313DF070318E00AFF30E0078B2BC4
:1006D000831603136408F3006308F2006208F10054
:1006E0006108F0004130F7002030F6000030F500DE
:1006F0000030F4000A168A15A4260A128A11031C77
:10070000822B832B8B2B013083160313DF070318F7
:10071000E00A0030E007831603136708803AFF0001
:1007200080307F02031D962B0D3066020318992B33
:100730009A2BE12B8316031366080A168A116D2380
:100740000A128A11831203134108D5004008D4000D
:100750003F08D3003E08D200831603136B088312B0
:100760000313D900831603136A0883120313D800F6
:1007700083160313690883120313D7008316031328
:10078000680883120313D6000A168A1178250A1204
:100790008A1183120313550883160313EB00831287
:1007A0000313540883160313EA0083120313530838
:1007B00083160313E90083120313520883160313ED
:1007C000E800831603136008803AFF0080307F0240
:1007D000031DEC2B0A305F020318EF2BF02B412C8A
:1007E000831603136B08F3006A08F2006908F1002E
:1007F0006808F0000030F7000030F6000030F50027
:100800000030F4000A168A1593240A128A1103187C
:100810000A2C0B2CB32C831603136B0883120313BF
:10082000D400831603136A0883120313D3008316BC
:100830000313690883120313D20083160313680895
:1008400083120313D1000A128A1116200A128A1188
:10085000831203135408530452045104031D312C12
:10086000322CB32C831603136008803AFF008030CB
:100870007F02031D3D2C02305F02031C402C412CE3
:10088000B32C831603136408F3006308F2006208B4
:10089000F1006108F0004030F7008930F600703058
:1008A000F5005F30F4000A168A15A4260A128A1190
:1008B00003185B2C5C2C652CF73083160313DF07C1
:1008C0000318E00AFF30E0076D2CF830831603139D
:1008D000DF070318E00AFF30E0075F080A128A15F5
:1008E00040210A128A11831203134108831603134D
:1008F000E40083120313400883160313E3008312FA
:1009000003133F0883160313E200831203133E0808
:1009100083160313E1006B08F3006A08F20069080C
:10092000F1006808F0006408F7006308F600620848
:10093000F5006108F4000A128A1582200A128A1151
:10094000730883160313DE007208DD007108DC00F3
:100950007008DB000030EB000030EA000030E900F6
:100960000030E800372D831603136B08831203133E
:10097000D400831603136A0883120313D30083166B
:100980000313690883120313D20083160313680844
:1009900083120313D1000A128A1116200A128A1137
:1009A00083120313540883160313DE008312031308
:1009B000530883160313DD008312031352088316B2
:1009C0000313DC0083120313510883160313DB00A7
:1009D0005E08F3005D08F2005C08F1005B08F000BF
:1009E00000300A168A1546270A128A1173088312E4
:1009F0000313E9007208E8007108E7007008E600D8
:100A0000831603136B0883120313ED00831603137D
:100A10006A0883120313EC00831603136908831218
:100A20000313EB0083160313680883120313EA0011
:100A30000A168A15F0220A128A1183120313690812
:100A400083160313EB008312031368088316031342
:100A5000EA0083120313670883160313E900831265
:100A60000313660883160313E800DF01E001EC01BD
:100A7000EC0A6C08CF0001300310CF0DFF3E031DC0
:100A80003C2D03104F0D693E84000A168A110A207E
:100A90000A128A11D0000A168A110A200A128A1133
:100AA000D1000A168A110A200A128A11D2000A16E7
:100AB0008A110A200A128A11D30053085E02031D0C
:100AC0006B2D52085D02031D6B2D51085C02031D46
:100AD0006B2D50085B0203186E2D6F2D702D7A2D33
:100AE0000130CF004F08EC070A306C06031D792D4A
:100AF0007A2D392D03305905CF0000305A05D0002A
:100B00004F0850040319852D862DF82D2D30CF0068
:100B1000650884004F08831380000130CF004F0820
:100B2000E507F82D6C08CF0001300310CF0DFF3E14
:100B3000031D952D03104F0D693E84000A168A117E
:100B40000A200A128A11F0000A168A110A200A12D3
:100B50008A11F1000A168A110A200A128A11F2007B
:100B60000A168A110A200A128A11F3005E08F70099
:100B70005D08F6005C08F5005B08F4000A168A15AB
:100B80003E260A128A11730883160313E4007208C2
:100B9000E3007108E2007008E1000030F30000306B
:100BA000F2000030F1000A30F0006408F70063083A
:100BB000F6006208F5006108F4000A168A1533256C
:100BC0000A128A11730883160313E4007208E30003
:100BD0007108E2007008E1006108303ECF0065084E
:100BE00084004F08831380000130CF004F08E507D1
:100BF0000130EC026C0A031DFE2DFF2D922D132EE9
:100C0000303083160313CF00650884004F08831328
:100C100080000130CF004F08E507FF30DF070318E1
:100C2000E00AFF30E0076008803AFF0080307F0272
:100C3000031D1C2E01305F0203181F2E202E002ED4
:100C4000831603136708803AFF0080307F02031D7C
:100C50002B2E09306602031C2E2E2F2E362E083026
:100C600083160313CF004F08EC003C2E83160313AA
:100C70006608CF004F08EC006C08CF00D0014F0889
:100C8000E6025008031CE703E7026C080319492E2B
:100C90004A2E552E2E30CF00650884004F0883134E
:100CA00080000130CF004F08E5076C080A128A1552
:100CB00040210A128A118312031341088316031379
:100CC000D70083120313400883160313D600831240
:100CD00003133F0883160313D500831203133E0842
:100CE00083160313D400570883120313AB00831633
:100CF0000313560883120313AA008316031355081F
:100D000083120313A90083160313540883120313D9
:100D1000A800831603136B0883120313A70083161E
:100D200003136A0883120313A600831603136908CA
:100D300083120313A5008316031368088312031399
:100D4000A4000A128A159F240A128A11831203131F
:100D50002708D4002608D3002508D2002408D10093
:100D60000A128A1116200A128A11831203135408D8
:100D700083160313DE008312031353088316031331
:100D8000DD0083120313520883160313DC00831261
:100D90000313510883160313DB006F2F6C08CF0079
:100DA00001300310CF0DFF3E031DD12E03104F0D58
:100DB000693E84000A168A110A200A128A11F0007C
:100DC0000A168A110A200A128A11F1000A168A11DB
:100DD0000A200A128A11F2000A168A110A200A123F
:100DE0008A11F3005E08F7005D08F6005C08F50064
:100DF0005B08F4000A168A153E260A128A11730847
:100E000083160313E4007208E3007108E20070081F
:100E1000E1000030F3000030F2000030F1000A3051
:100E2000F0006408F7006308F6006208F500610846
:100E3000F4000A168A1533250A128A1173088316DC
:100E40000313E4007208E3007108E2007008E10097
:100E50006108303ECF00650884004F08831380008E
:100E60000130CF004F08E5076C08CF0001300310B8
:100E7000CF0DFF3E031D372F03104F0D693E840039
:100E80000A168A110A200A128A11F0000A168A111B
:100E90000A200A128A11F1000A168A110A200A127F
:100EA0008A11F2000A168A110A200A128A11F30026
:100EB0005E08F7005D08F6005C08F5005B08F400CA
:100EC0000A168A1533250A128A117308831603132A
:100ED000DE007208DD007108DC007008DB00013004
:100EE000EC026C0A031D752F762FCE2E882F303022
:100EF000CF00650884004F08831380000130CF00C5
:100F00004F08E507FF30E6070318E70AFF30E70759
:100F100066086704031D8D2F8E2F772FD42F660848
:100F20006704031D942F952FA32F5E085D045C04B6
:100F30005B04031D9C2F9D2FA32F0130E607031890
:100F4000E70A0030E7076708803A803C031DAA2FB4
:100F500066086C020318AD2FAE2FAF2FBE2F83167D
:100F600003136708803ACF0080304F02031DBA2F69
:100F70006C0866020318BD2FBE2FBE2F03308316E8
:100F800003135905CF0000305A05D0004F08500414
:100F90000319CB2FCC2FD42F2D30CF006508840020
:100FA0004F0883138000A8290130CA07FF304A0781
:100FB00084000A168A110A200A128A11CF004F08EB
:100FC000EC006C08031DE52FE62F9B2965088400C3
:100FD000831380010800831603130A128A11032069
:100FE0000A128A11ED008313A0308400CA300A1659
:100FF0008A11BC200A128A1183010A128A119228CE
:1010020073087204710470040319082809280B2854
:101012008030F306080000300A168A15B4220A123C
:101022008A1501300A168A15B4220A128A15080096
:1010320083120313A101F81F1F2820282728F7096C
:10104200F809F70A0319F80AA101A10AFA1F2A28C6
:101052002B283428F909FA09F90A0319FA0A013086
:10106200FB007B08A106A201A301770878040319FB
:101072003B283C287328A001A00A4A28013003100B
:10108200F70DF80DFF3E031D40280130FB007B08E1
:10109200A007F81F4D284E283F2801300310A20D4B
:1010A200A30DFF3E031D4F2878087A02031D5B281B
:1010B20077087902031C5E285F2866287708F90200
:1010C2007808031CFA03FA02221401300310F80C08
:1010D200F70CFF3E031D67280130A002031D722892
:1010E20073284E2821080319772878287D28A20919
:1010F200A309A20A0319A30A2308F8002208F70089
:1011020008000310720D730DF800780883120313A0
:10111200A5002508031D8E288F2898280030F3008B
:101122000030F2000030F1000030F0003F290310DF
:10113200760D770DF8007808A4002408031DA22874
:10114200A328A4288F28F217FF30F005FF30F105FD
:10115200FF30F2050030F305F617FF30F405FF30DB
:10116200F505FF30F6050030F7050030A30000302A
:10117200A2000030A1000030A0007F30A502A03004
:101182002407F8007808A5022030F8007808A400A7
:101192000130F8000310A00DA10DA20DA30DF80B54
:1011A200CB2877087302031DE02876087202031D1C
:1011B200E02875087102031DE02874087002031C00
:1011C200E328E428F3287408F0027508031C750F5D
:1011D200F1027608031C760FF2027708031C770FE0
:1011E200F30220140130F8000310F00DF10DF20D9E
:1011F200F30DF80BF5280130A402031D0129022981
:10120200C928A51F0529062920292508803A9F3EBD
:1012120003180C290D290E298F2801300310A30C65
:10122200A20CA10CA00CFF3E031D0F290130F800F7
:101232007808A507031D1E291F290E2937292030EA
:101242002502031C2529262932298F280130F8007E
:101252000310A00DA10DA20DA30DF80B2929013039
:10126200A5022508031D3629372927292308F3005B
:101272002208F2002108F1002008F0000800831281
:101282000313D000D01F46294729F42AD009D00AD7
:101292005008803A123E031C4F295029382A0A303E
:1012A200F7000030F8005008F200F301F21BF303DC
:1012B2006430F0000030F1000A168A1587250A1200
:1012C2008A157108FA007008F9000A128A151920A5
:1012D2000A128A15770883120313C2000130031021
:1012E200C20DFF3E031D70290310420D593E8400BA
:1012F2000A168A110A200A128A15C3000A168A11CE
:101302000A200A128A15C4000A168A110A200A1231
:101312008A15C5000A168A110A200A128A15C60001
:101322004608A7004508A6004408A5004308A400F3
:101332006430F7000030F8005008F900FA01F91B98
:10134200FA030A128A1519200A128A1577088312DB
:101352000313C70001300310C70DFF3E031DAC2964
:101362000310470D7D3E84000A168A110A200A12D4
:101372008A15C8000A168A110A200A128A15C9009B
:101382000A168A110A200A128A15CA000A168A1136
:101392000A200A128A15CB004B08AB004A08AA00A1
:1013A2004908A9004808A8000A128A159F240A12AF
:1013B2008A15831203132708CF002608CE002508BA
:1013C200CD002408CC000A30F0000030F1005008B3
:1013D200F200F301F21BF3030A168A1587250A129B
:1013E2008A15700883120313C20001300310C20D64
:1013F200FF3E031DF7290310420D353E84000A16F5
:101402008A110A200A128A15C3000A168A110A20B2
:101412000A128A15C4000A168A110A200A128A15AB
:10142200C5000A168A110A200A128A15C600460841
:10143200A7004508A6004408A5004308A4004F08D9
:10144200AB004E08AA004D08A9004C08A8000A12D9
:101452008A159F240A128A15831203132708C100D2
:101462002608C0002508BF002408BE009E2C500894
:10147200803A753E031C3E2A3F2AC72A0A30F000F2
:101482000030F1005008F200F301F21BF3030A16D8
:101492008A1587250A128A15700883120313C2005F
:1014A20001300310C20DFF3E031D522A0310420DEC
:1014B200353E84000A168A110A200A128A15C300D0
:1014C2000A168A110A200A128A15C4000A168A11FB
:1014D2000A200A128A15C5000A168A110A200A125F
:1014E2008A15C6004608A7004508A6004408A500BC
:1014F2004308A4000A30F7000030F8005008F90051
:10150200FA01F91BFA030A128A1519200A128A151E
:10151200770883120313C70001300310C70DFF3E83
:10152200031D8E2A0310470D593E84000A168A11A4
:101532000A200A128A15C8000A168A110A200A12FB
:101542008A15C9000A168A110A200A128A15CA00C7
:101552000A168A110A200A128A15CB004B08AB0020
:101562004A08AA004908A9004808A8000A128A15D0
:101572009F240A128A15831203132708C100260822
:10158200C0002508BF002408BE009E2C5008C200DF
:1015920001300310C20DFF3E031DCA2A0310420D83
:1015A200353E84000A168A110A200A128A15C300DF
:1015B2000A168A110A200A128A15C4000A168A110A
:1015C2000A200A128A15C5000A168A110A200A126E
:1015D2008A15C6004608C1004508C0004408BF007D
:1015E2004308BE009E2C5008803A123E031CFA2A81
:1015F200FB2AE32B0A30F7000030F8005008F20013
:10160200F301F21BF3036430F0000030F1000A161C
:101612008A1587250A128A157108FA007008F900DE
:101622000A128A1519200A128A15770883120313DF
:10163200C20001300310C20DFF3E031D1B2B03101D
:10164200420D253E84000A168A110A200A128A15C2
:10165200C3000A168A110A200A128A15C4000A1641
:101662008A110A200A128A15C5000A168A110A204E
:101672000A128A15C6004608A7004508A6004408B3
:10168200A5004308A4006430F7000030F8005008B9
:10169200F900FA01F91BFA030A128A1519200A1233
:1016A2008A15770883120313C70001300310C70D90
:1016B200FF3E031D572B0310470D493E84000A16B7
:1016C2008A110A200A128A15C8000A168A110A20EB
:1016D2000A128A15C9000A168A110A200A128A15E4
:1016E200CA000A168A110A200A128A15CB004B0870
:1016F200AB004A08AA004908A9004808A8000A1233
:101702008A159F240A128A15831203132708CF0011
:101712002608CE002508CD002408CC000A30F000AF
:101722000030F1005008F200F301F21BF3030A1635
:101732008A1587250A128A15700883120313C200BC
:1017420001300310C20DFF3E031DA22B0310420DF8
:10175200013E84000A168A110A200A128A15C30061
:101762000A168A110A200A128A15C4000A168A1158
:101772000A200A128A15C5000A168A110A200A12BC
:101782008A15C6004608A7004508A6004408A50019
:101792004308A4004F08AB004E08AA004D08A90058
:1017A2004C08A8000A128A159F240A128A1583126D
:1017B20003132708C1002608C0002508BF0024081B
:1017C200BE009E2C5008803A753E031CE92BEA2B82
:1017D200722C0A30F0000030F1005008F200F301E0
:1017E200F21BF3030A168A1587250A128A15700856
:1017F20083120313C20001300310C20DFF3E031D0A
:10180200FD2B0310420D013E84000A168A110A20A4
:101812000A128A15C3000A168A110A200A128A15A8
:10182200C4000A168A110A200A128A15C5000A166D
:101832008A110A200A128A15C6004608A70045081E
:10184200A6004408A5004308A4000A30F7000030AF
:10185200F8005008F900FA01F91BFA030A128A1576
:1018620019200A128A15770883120313C700013060
:101872000310C70DFF3E031D392C0310470D253EF3
:1018820084000A168A110A200A128A15C8000A164A
:101892008A110A200A128A15C9000A168A110A2018
:1018A2000A128A15CA000A168A110A200A128A1511
:1018B200CB004B08AB004A08AA004908A900480817
:1018C200A8000A128A159F240A128A15831203138A
:1018D2002708C1002608C0002508BF002408BE0052
:1018E2009E2C5008C20001300310C20DFF3E031DA2
:1018F200752C0310420D013E84000A168A110A203B
:101902000A128A15C3000A168A110A200A128A15B7
:10191200C4000A168A110A200A128A15C5000A167C
:101922008A110A200A128A15C6004608C100450813
:10193200C0004408BF004308BE000800831203131E
:1019420027088039AC002C08B1002708AC002C070E
:10195200AD002D08B700A61FAF2CB02CB12C371448
:1019620037080319B52CB62CC52C370A031DBA2C1F
:10197200BB2CC32C0030A7000030A6000030A5000D
:101982000030A400A617CD2C0030A7000030A6001E
:101992000030A5000030A4002B088039AC002C08D0
:1019A200B1062B08AC002C07AD002D08B600AA1F0B
:1019B200DB2CDC2CDD2C361436080319E12CE22C4E
:1019C200F12C360A031DE62CE72CEF2C0030AB007D
:1019D2000030AA000030A9000030A800AA17F92C94
:1019E2000030AB000030AA000030A9000030A8008F
:1019F20036080319FD2CFE2C032D3708031D022D7A
:101A0200032D0C2D0030A7000030A6000030A500E9
:101A12000030A400FF2F2408AC002C08F0002A0894
:101A22000A168A1539230A128A15710883120313BA
:101A3200BD007008BC003C08AC00AD01AE01AF01B6
:101A42002F08B5002E08B4002D08B3002C08B200F0
:101A52003D08AC00AD01AE01AF012F08BB002E085E
:101A6200BA002D08B9002C08B8002508AC002C08D3
:101A7200F00029080A168A1539230A128A157108F4
:101A820083120313BD007008BC003C08AC00AD011A
:101A9200AE01AF012C08B2072D0803110318013E55
:101AA2000319542DB3072E0803110318013E03191D
:101AB2005B2DB4072F0803110318013E0319622D91
:101AC200B5073D08AC00AD01AE01AF012C08B80767
:101AD2002D0803110318013E0319702DB9072E08B2
:101AE20003110318013E0319772DBA072F080311BA
:101AF2000318013E03197E2DBB072608AC002C08F3
:101B0200F00028080A168A1539230A128A15710864
:101B120083120313BD007008BC003C08AC00AD0189
:101B2200AE01AF012C08B2072D0803110318013EC4
:101B320003199C2DB3072E0803110318013E031944
:101B4200A32DB4072F0803110318013E0319AA2D70
:101B5200B5073D08AC00AD01AE01AF012C08B807D6
:101B62002D0803110318013E0319B82DB9072E08D9
:101B720003110318013E0319BF2DBA072F080311E1
:101B82000318013E0319C62DBB070830AC00031031
:101B9200B20DB30DB40DB50DAC0BC82D2508AC00BC
:101BA2002C08F00028080A168A1539230A128A1509
:101BB200710883120313BD007008BC003C08AC001E
:101BC2003D08AD00AE01AF012C08B2072D0803118C
:101BD2000318013E0319EE2DB3072E080311031853
:101BE200013E0319F52DB4072F0803110318013E16
:101BF2000319FC2DB5072408AC002C08F0002908B5
:101C02000A168A1539230A128A15710883120313D8
:101C1200BD007008BC003C08AC003D08AD00AE0140
:101C2200AF012C08B2072D0803110318013E031956
:101C32001B2EB3072E0803110318013E0319222E8F
:101C4200B4072F0803110318013E0319292EB50703
:101C52000830AC000310B20DB30DB40DB50DAC0BD2
:101C62002B2E2408AC002C08F00028080A168A152E
:101C720039230A128A15710883120313BD007008F2
:101C8200BC003C08AC003D08AD00AE01AF012C0821
:101C9200B2072D0803110318013E0319512EB30791
:101CA2002E0803110318013E0319582EB4072F08FA
:101CB20003110318013E03195F2EB5072508AC0076
:101CC2002C08F0002A080A168A1539230A128A15E6
:101CD200710883120313BD007008BC003C08AC00FD
:101CE2003D08AD00AE01AF012C08B8072D08031165
:101CF2000318013E03197E2EB9072E08031103189B
:101D0200013E0319852EBA072F0803110318013E5D
:101D120003198C2EBB072608AC002C08F0002908FA
:101D22000A168A1539230A128A15710883120313B7
:101D3200BD007008BC003C08AC003D08AD00AE011F
:101D4200AF012C08B8072D0803110318013E03192F
:101D5200AB2EB9072E0803110318013E0319B22E48
:101D6200BA072F0803110318013E0319B92EBB0746
:101D72002608AC002C08F0002A080A168A15392316
:101D82000A128A15710883120313BD007008BC0081
:101D92003C08AC003D08AD00AE01AF0108300310B5
:101DA200AC0DAD0DAE0DAF0DFF3E031DD02E2C08B8
:101DB200B8072D0803110318013E0319E12EB907D4
:101DC2002E0803110318013E0319E82EBA072F0843
:101DD20003110318013E0319EF2EBB073208AC00B2
:101DE2003308AD003408AE003508AF0018300310D8
:101DF200AF0CAE0CAD0CAC0CFF3E031DF82E2C0844
:101E0200B8072D0803110318013E0319092FB9075A
:101E12002E0803110318013E0319102FBA072F08C9
:101E220003110318013E0319172FBB070830AC003A
:101E32000310B20DB30DB40DB50DAC0B192F37084D
:101E42003607AC00AD01AD0D2C08823EBC002D085A
:101E52000318013EFF3EBD004B2F0130AC000310C2
:101E6200B80DB90DBA0DBB0DAC0B302FB51F3A2F03
:101E72003B2F3C2F38140130AC000310B20DB30DD0
:101E8200B40DB50DAC0B3E2FFF30BC070318BD0AD5
:101E9200FF30BD07BA1F4E2F4F2F2E2FB601B51F91
:101EA200532F542F702FFF303205AC00FF30330513
:101EB200AD00FF303405AE007F303505AF002F088E
:101EC2002E042D042C040319672F682F6B2FB601E3
:101ED200B60A702F381C6E2F6F2F702F682F36089E
:101EE2000319742F752FA62F0130B807003003187D
:101EF2000130B907003003180130BA070030031867
:101F02000130BB073B1C862F872FA62F3808AC0059
:101F12003908AD003A08AE003B08AF000130B0000E
:101F22002F0DAF0CAE0CAD0CAC0CB00B912F2F08DB
:101F3200BB002E08BA002D08B9002C08B8000130E9
:101F4200BC070318BD0A0030BD073D08803AFF00F8
:101F520080307F02031DAF2FFF303C02031CB22FE3
:101F6200B32FBE2F7F3083120313BB008030BA0021
:101F72000030B9000030B800F32F831203133D087C
:101F8200803AFF0080307F02031DC92F01303C02DE
:101F92000318CC2FCD2FD92F003083120313BB008F
:101FA2000030BA000030B9000030B800B101F32FA0
:101FB200831203133C08AC002C08B700FF30B805AD
:101FC200FF30B9057F30BA050030BB05371CEA2F58
:101FD200EB2FEC2FBA173708AC0003102C0CAD0016
:101FE2002D08BB003108AC002C08BB043B08A7003D
:101FF2003A08A6003908A5003808A4000800FF1B0B
:102002000A2883137F1883170008840A0319FF0A1A
:10201200080010308A000408840A82070034003461
:10202200003480343F3400340034203441340034EE
:102032000034C8344234003400347A344434003436
:1020420040341C34463400345034C33447340034F2
:102052002434743449348034963418344B34203464
:10206200BC34BE344C3428346B346E344E34F934C0
:10207200023415345034EC347834AD346034CA341C
:10208200F234493471340034003480343F34CD3476
:10209200CC34CC343D340A34D73423343C346F341A
:1020A200123483343A341734B734D1343834AC343C
:1020B200C53427343734BD34373486343534953417
:1020C200BF34D63433347734CC342B3432345F34A7
:1020D200703489343034FF34E634DB342E3408343F
:1020E200E5343C341E3460344234A2340D340134BD
:1020F2000034003400340A340034003400346434D0
:10210200003400340034E834033400340034103432
:10211200273400340034A03486340134003440348F
:1021220042340F340034803496349834003400340E
:10213200E134F53405340034CA349A343B34203463
:10214200543465346D3470346534723461347434AB
:102152007534723465342034493473342034003495
:102162002034203420342034203425342E343334A7
:1021720066346334003464008001840A040603195F
:1021820000340406BD284130831203139F008030BF
:10219200831603139F0008007008F8007108F90005
:1021A2007208FA000310790D7A0DFB007B08831286
:1021B2000313A5002508031DDF28E028E9280030C5
:1021C200F3000030F2000030F1000030F000892905
:1021D2007408F8007508F9007608FA000310790D02
:1021E2007A0DFB007B08A4002408031DF928FA28B5
:1021F200FB28E028F117FF30F005FF30F105003031
:10220200F205F517FF30F405FF30F5050030F6054D
:102212000030A3000030A2000030A1000030A00076
:102222007F30A50298302407F8007808A5021830FC
:10223200F8007808A4000130F8000310A00DA10DE9
:10224200A20DA30DF80B1E2976087202031D2F2979
:1022520075087102031D2F2974087002031C3229AC
:1022620033293E297408F0027508031C750FF10228
:102272007608031C760AF202201401300310F00DD6
:10228200F10DF20DFF3E031D3F290130A402031D93
:102292004B294C291C29A51F4F2950296A29250899
:1022A200803A973E0318562957295829E0280130C9
:1022B2000310A30CA20CA10CA00CFF3E031D592974
:1022C2000130F8007808A507031D682969295829F3
:1022D200812918302502031C6F2970297C29E028E6
:1022E2000130F8000310A00DA10DA20DA30DF80BF3
:1022F20073290130A5022508031D8029812971292E
:102302002308F3002208F2002108F1002008F0005F
:10231200080077088039F800780883120313A400B4
:102322007708F8007807F9007908AB00F61F9A29B8
:102332009B299C292B142B080319A029A129B12917
:102342002B0A031DA529A629AE290030F70000306B
:10235200F6000030F5000030F400F617F701B92955
:102362000030F7000030F6000030F5000030F400D5
:1023720073088039F8007808A4067308F800780713
:10238200F9007908AC00F21FC729C829C9292C1401
:102392002C080319CD29CE29DE292C0A031DD229A6
:1023A200D329DB290030F3000030F2000030F100C5
:1023B2000030F000F217F301E6290030F30000309C
:1023C200F2000030F1000030F00073087204710472
:1023D2007004031DED29EE29072A0030F7000030B2
:1023E200F6000030F5000030F4008030F6047F3053
:1023F200F7042408F8007808F7047708F300760851
:10240200F2007508F1007408F0006C2B2B08031D14
:102412000B2A0C2A152A0030F3000030F20000309B
:10242200F1000030F0006C2B2B08F800F90179085C
:10243200FB002C087802FA00031CFB037A087F3E9B
:10244200A5007B080318013E003EA6007708A30002
:102452007608A2007508A1007408A0000030F700F9
:102462000030F6000030F5000030F4000030AA0021
:102472000030A9000030A8000030A700AC01912A6A
:102482002C080319452A462A662A0130F80003104F
:10249200A00DA10DA20DA30DF80B482A0130F800E2
:1024A2000310F40DF50DF60DF70DF80B512AAA1FC6
:1024B2005B2A5C2A5D2A74140130F8000310A70D10
:1024C200A80DA90DAA0DF80B5F2A73082302031D9C
:1024D200742A72082202031D742A71082102031D44
:1024E200742A70082002031C772A782A8D2A2A1758
:1024F2007008A0027108031C710F802A812AA102B0
:102502007208031C720F862A872AA2027308031C10
:10251200730F8C2A8D2AA3020130F8007808AC07C9
:102522001A302C02031C962A972A412A23082204D5
:102532002104200403199E2A9F2ABE2A2714BE2A98
:102542000130F8000310F40DF50DF60DF70DF80B40
:10255200A32AAA1FAD2AAE2AAF2A74140130F800AA
:102562000310A70DA80DA90DAA0DF80BB12AFF3073
:10257200A5070318A60AFF30A607F61FC12AC22A1A
:10258200A12AAC01AA1FC62AC72AE32AFF302705BF
:10259200F800FF302805F900FF302905FA007F30E6
:1025A2002A05FB007B087A04790478040319DA2AE5
:1025B200DB2ADE2AAC01AC0AE32A741CE12AE22AF5
:1025C200E32ADB2A2C080319E72AE82A192B01300F
:1025D200F407003003180130F5070030031801300A
:1025E200F607003003180130F707771CF92AFA2A98
:1025F200192B7408F8007508F9007608FA007708B4
:10260200FB000130FC007B0DFB0CFA0CF90CF80C02
:10261200FC0B042B7B08F7007A08F6007908F5001A
:102622007808F4000130A5070318A60A0030A607AF
:102632002608803AFF0080307F02031D222BFF30E4
:102642002502031C252B262B342BFF308312031368
:10265200A5000030A6000030F7000030F600003080
:10266200F5000030F400831203132608803AFF00BD
:1026720080307F02031D3F2B013025020318422BBD
:10268200432B502B83120313A501A6010030F70040
:102692000030F6000030F5000030F400A40183128F
:1026A20003132508F8007808AB002B1C592B5A2B72
:1026B2005C2BF617602B7F30F8007808F6052B08A4
:1026C200F8000310780CF9007908F7002408F800E4
:1026D2007808F704FE29080083120313D1006E3034
:1026E2005102031C752B762B832C3F30A700003040
:1026F200A6000030A5000030A4006430F6000030CF
:10270200F7005108C200C3014208F8004308F9006B
:102712000A168A154F240A168A11760883120313A1
:10272200C40001300310C40DFF3E031D932B0310A0
:10273200440D7D3E84000A168A110A200A168A1167
:10274200C5000A168A110A200A168A11C6000A163C
:102752008A110A200A168A11C7000A168A110A204B
:102762000A168A11C8004808AB004708AA004608A2
:10277200A9004508A8000A128A159F240A168A1180
:10278200831203132708D0002608CF002508CE00A5
:102792002408CD000A30F6000030F7005108C200CC
:1027A200C3014208F2004308F3006430F000003035
:1027B200F1000A168A1590230A168A117108F90087
:1027C2007008F8000A168A154F240A168A1176082C
:1027D20083120313C40001300310C40DFF3E031D16
:1027E200ED2B0310440D593E84000A168A110A206B
:1027F2000A168A11C5000A168A110A200A168A11B7
:10280200C6000A168A110A200A168A11C7000A1679
:102812008A110A200A168A11C8004808A700470828
:10282200A6004608A5004508A4005008AB004F08C2
:10283200AA004E08A9004D08A8000A128A159F2472
:102842000A168A11831203132708CC002608CB002C
:102852002508CA002408C9000A30F0000030F1003F
:102862005108C200C3014208F2004308F3000A16ED
:102872008A1590230A168A11700883120313C40062
:1028820001300310C40DFF3E031D422C0310440D02
:10289200353E84000A168A110A200A168A11C500DA
:1028A2000A168A110A200A168A11C6000A168A1105
:1028B2000A200A168A11C7000A168A110A200A1665
:1028C2008A11C8004808A7004708A6004608A500C4
:1028D2004508A4004C08AB004B08AA004A08A9000E
:1028E2004908A8000A128A159F240A168A1183121F
:1028F20003132708C1002608C0002508BF002408CA
:10290200BE00772D0B305102031C882C892C342DEC
:102912003F30A7000030A6000030A5000030A40020
:102922000A30F6000030F7005108C200C301420825
:10293200F8004308F9000A168A154F240A168A116C
:10294200760883120313C40001300310C40DFF3E46
:10295200031DA62C0310440D593E84000A168A1149
:102962000A200A168A11C5000A168A110A200A16B6
:102972008A11C6000A168A110A200A168A11C7008D
:102982000A168A110A200A168A11C8004808AB00E2
:102992004708AA004608A9004508A8000A128A1595
:1029A2009F240A168A11831203132708D0002608CF
:1029B200CF002508CE002408CD000A30F0000030F8
:1029C200F1005108C200C3014208F2004308F300BB
:1029D2000A168A1590230A168A11700883120313A5
:1029E200C40001300310C40DFF3E031DF32C03107D
:1029F200440D353E84000A168A110A200A168A11ED
:102A0200C5000A168A110A200A168A11C6000A1679
:102A12008A110A200A168A11C7000A168A110A2088
:102A22000A168A11C8004808A7004708A6004608E7
:102A3200A5004508A4005008AB004F08AA004E08A4
:102A4200A9004D08A8000A128A159F240A168A11A5
:102A5200831203132708C1002608C0002508BF00FF
:102A62002408BE00772D3F30A7000030A6000030BA
:102A7200A5000030A4005108C20001300310C20DAD
:102A8200FF3E031D3F2D0310420D353E84000A1602
:102A92008A110A200A168A11C3000A168A110A200C
:102AA2000A168A11C4000A168A110A200A168A1105
:102AB200C5000A168A110A200A168A11C60046089B
:102AC200AB004508AA004408A9004308A8000A125E
:102AD2008A159F240A168A11831203132708C1003C
:102AE2002608C0002508BF002408BE000800831283
:102AF200031355088039DA005A08E2005508DA0053
:102B02005A07DB005B08E400D41F882D892D8A2D2B
:102B12006414640803198E2D8F2D9F2D640A031DE2
:102B2200932D942D9C2D0030D5000030D400003020
:102B3200D3000030D200D417D501A72D0030D50024
:102B42000030D4000030D3000030D2005908803960
:102B5200DA005A08E300630862060319B12DB22DA8
:102B6200B32D62175908DA005A07DB005B08E3004D
:102B7200D81FBC2DBD2DBE2D631463080319C22DB1
:102B8200C32DD32D630A031DC72DC82DD02D0030B0
:102B9200D9000030D8000030D7000030D600D81756
:102BA200D901DB2D0030D9000030D8000030D70029
:102BB2000030D600640863020318E02DE12D252EB3
:102BC200621FE42DE52DE92D8030DA005A08E20675
:102BD2006408DA005A08E5006308DA005A08E400DB
:102BE2006508DA005A08E3005208DA005A08E500DC
:102BF2005608DA005A08D2006508DA005A08D600E8
:102C02005308DA005A08E5005708DA005A08D300D8
:102C12006508DA005A08D7005408DA005A08E500B5
:102C22005808DA005A08D4006508DA005A08D800B1
:102C32005508DA005A08E5005908DA005A08D500A2
:102C42006508DA005A08D900E5016308DA00DB01F9
:102C52005B08DD0064085A02DC00031CDD035D082A
:102C6200803AFF0080307F02031D392E1A305C0249
:102C7200031C3C2E3D2E7A2E831203135508540456
:102C820053045204031D462E482E0130492E0030B3
:102C9200DA005A08E5000030D5000030D4000030D8
:102CA200D3000030D2006308DA005A08E400822E12
:102CB200651C5C2E5D2E662E6508DA0003105A0C28
:102CC2000138DB005B08E500682E0310E50C521C9E
:102CD2006B2E6C2E6D2EE5170130DA00550DD50CDA
:102CE200D40CD30CD20CDA0B6F2E0130DA005A0856
:102CF200E4078312031363086402031C812E822EED
:102D0200592E621B852E862ED12E6408031D8A2E13
:102D12008B2E942E0030D5000030D4000030D3002A
:102D22000030D200FF2F5608D207570803110318AC
:102D3200013E03199D2ED307580803110318013EC3
:102D42000319A42ED407590803110318013E0319CD
:102D5200AB2ED507551CAE2EAF2E852F651CB22E7D
:102D6200B32EBC2E6508DA0003105A0C0138DB00C2
:102D72005B08E500BE2E0310E50C521CC12EC22ECC
:102D8200C32EE5170130DA00550DD50CD40CD30C47
:102D9200D20CDA0BC52E0130DA005A08E407852F6F
:102DA2005508803AFF005908803A7F02031DE32E3E
:102DB20058085402031DE32E57085302031DE32E45
:102DC200560852020318E62EE72E3F2FFF30DA0094
:102DD200FF30DB00FF30DC00FF30DD005608DE0094
:102DE2005708DF005808E0005908E1005208DE02E7
:102DF2005308031C530FFE2EFF2EDF025408031C40
:102E0200540F042F052FE0025508031C550F0A2FFB
:102E12000B2FE1025E08DA075F0803185F0F122F1B
:102E2200132FDB0760080318600F182F192FDC0718
:102E320061080318610ADD075D08D5005C08D4004B
:102E42005B08D3005A08D2008030DA005A08E20642
:102E5200E509E50A6508031D2F2F302F4D2F01309C
:102E6200D207003003180130D307003003180130B5
:102E7200D407003003180130D5074D2F5608D2026F
:102E82005708031C570FD3025808031C580FD402CB
:102E92005908031C590FD50255085404530452040F
:102EA200031D542F552F812F6508031D592F5A2FAB
:102EB200812F0030D5000030D4000030D300003024
:102EC200D200FF2F0130DA000310D20DD30DD40D42
:102ED200D50DDA0B652FE51F6F2F702F712F52144E
:102EE200651C742F752F782F0314E50D7A2F0310AC
:102EF200E50D640803197E2F7F2F812F0130E40234
:102F0200D41F842F852F632FE301E51F892F8A2F7A
:102F1200982F65087F3903198F2F902F932FE30184
:102F2200E30A982F521C962F972F982F902F630801
:102F320003199C2F9D2FD12F0130D2070030031887
:102F42000130D307003003180130D40700300318D2
:102F52000130D507551CAE2FAF2FD12F5208DA0002
:102F62005308DB005408DC005508DD000130DE00A8
:102F72005D0DDD0CDC0CDB0CDA0CDE0BB92F5D0811
:102F8200D5005C08D4005B08D3005A08D200640A5A
:102F92000319CC2FCD2FD12F0130DA005A08E407C4
:102FA200640A0319D52FD62FDB2F6408031DDA2FED
:102FB200DB2FE92F0030D5000030D4000030D300E1
:102FC2000030D2006408031DE72FE82FE92FE20149
:102FD200641CEC2FED2FEF2FD417F32F7F30DA0084
:102FE2005A08D4056408DA0003105A0CDB005B08A7
:0E2FF200D500E21FFD2FFE2FFF2FD517080080
:10356800F30083120313081173080A168A15CE2272
:103578000A168A158312031388140630F2003030B5
:10358800F100F10BC52AF20BC52A000083120313C0
:1035980088100800F000701CD22AD32AD72A831278
:1035A80003130816DA2A831203130812F01CDD2A03
:1035B800DE2AE02A8816E12A8812701DE42AE52A04
:1035C800E72A0817E82A0813F01DEB2AEC2AEE2A46
:1035D8008817EF2A88130800803083120313E9063E
:1035E8006D08D5006C08D4006B08D3006A08D200B7
:1035F8006908D9006808D8006708D7006608D600A7
:103608000A168A1178250A168A1583120313550893
:10361800E9005408E8005308E7005208E6000800EB
:10362800F401F501701C192B1A2B202B7208F407D2
:103638000318F50A7308F50701300310F20DF30DAE
:10364800FF3E031D212B01300310F10CF00CFF3E4F
:10365800031D282B70087104031D332B342B162BE4
:103668007508F1007408F0000800F800F401F5018D
:103678007008F200F3017208F6007308F700781C6E
:10368800462B472B4D2B7608F4070318F50A7708C5
:10369800F50701300310F60DF70DFF3E031D4E2B05
:1036A8000310F80C7808031D5A2B5B2B432B750865
:1036B800F1007408F0000800F40008307402031CDC
:1036C800662B672B6A2BF001F1018F2B0130F2007A
:1036D8007208831203139F057408F2000230031066
:1036E800F20DFF3E031D732B0310720DF3007308D8
:1036F8009F040930F200F20B7F2B822B83120313F5
:103708001F151F19882B892B852B1E08F10083167E
:1037180003131E08F0000800700871040319952BA4
:10372800962BC52BF501F50AA42B01300310F00DDB
:10373800F10DFF3E031D9A2B0130F4007408F507C4
:10374800F11FA72BA82B992B71087302031DAE2B11
:1037580070087202031CB12BB22BB82B7008F2024E
:103768007108031CF303F30201300310F10CF00C91
:10377800FF3E031DB92B0130F502031DC42BC52BD9
:10378800A82B7308F1007208F0000800FA01FB0189
:10379800EF2B7A087507F8007608F7000318F70A80
:1037A800FA1FD72BF7037708F90079088312031358
:1037B800FF00780884000A168A1100200A168A1564
:1037C8000A168A150C240A168A150130FA070318F6
:1037D800FB0A0030FB077A087507F8007608F7003F
:1037E8000318F70AFA1FF92BF7037708F900790885
:1037F80083120313FF00780884000A168A11002038
:103808000A168A15003A031D0A2C0B2CCD2B08002A
:10381800F40074080F39F1007108F2007408F039E7
:10382800F1007108F3008312031308157308F100FF
:1038380004300310F10CFF3E031D1D2C71080A16FD
:103848008A15CE220A168A15831203138814A63005
:10385800F100F10B2D2C0000831203138810A63001
:10386800F100F10B352C000072080A168A15CE22D9
:103878000A168A15831203138814A630F100F10B77
:10388800432C0000831203138810A630F100F10BBB
:103898004B2C00000800FB01FC0176087704031993
:1038A800562C572C8E2CFD01FD0A652C0130031077
:1038B800F60DF70DFF3E031D5B2C0130FA007A0868
:1038C800FD07F71F682C692C5A2C01300310FB0DDB
:1038D800FC0DFF3E031D6A2C77087902031D762C28
:1038E80076087802031C792C7A2C812C7608F80249
:1038F8007708031CF903F9027B1401300310F70C55
:10390800F60CFF3E031D822C0130FD02031D8D2C99
:103918008E2C692C7C08F7007B08F6000800003024
:103928007005F80000307105F90080307205FA0062
:103938007F307305FB007B087A0479047804031D43
:10394800A62CA72CAF2C0030F3000030F20000307A
:10395800F1000030F00000307405F8000030750503
:10396800F90080307605FA007F307705FB007B0888
:103978007A0479047804031DC22CC32CCB2C0030A4
:10398800F7000030F6000030F5000030F40077084A
:103998007306031DD92C76087206031DD92C7508E9
:1039A8007106031DD92C740870060319DC2CDD2C54
:1039B800DF2C0310E02C03140800F7007703031D25
:1039C800E62CE72C0A2D74087F3EF5007508FA00EE
:1039D8007A08F50004300310F50CFF3E031DEF2CA8
:1039E8007508F6007608F8007A080F39F5007508AA
:1039F800F90078080A168A15B4220A168A15790871
:103A08000A168A15B4220A168A15322D023077064C
:103A1800031D0F2D102D322D7408BF3EF5007508BB
:103A2800FA007A08F50004300310F50CFF3E031D78
:103A3800182D7508F6007608F8007A080F39F50091
:103A48007508F90078080A168A15B4220A168A1524
:103A580079080A168A15B4220A168A150800730806
:103A680072047104700403193A2D3B2D7E2DF9015F
:103A7800F90A4B2D0130F8000310F00DF10DF20D8D
:103A8800F30DF80B402D0130F8007808F907F31F03
:103A98004E2D4F2D3E2D73087702031D5D2D7208A4
:103AA8007602031D5D2D71087502031D5D2D7008DA
:103AB8007402031C602D612D6F2D7008F4027108CB
:103AC800031C710FF5027208031C720FF6027308CB
:103AD800031C730FF70201300310F30CF20CF10C06
:103AE800F00CFF3E031D702D0130F902031D7D2DE2
:103AF8007E2D4F2D7708F3007608F2007508F10047
:103B08007408F0000800F601F31F8B2D8C2D932DFF
:103B1800F209F309F20A0319F30AF601F60AF11F8A
:103B2800962D972D9C2DF009F109F00A0319F10A39
:103B3800700871040319A12DA22DD12DF501F50AE4
:103B4800B02D01300310F00DF10DFF3E031DA62D21
:103B58000130F4007408F507F11FB32DB42DA52D1D
:103B680071087302031DBA2D70087202031CBD2D63
:103B7800BE2DC42D7008F2027108031CF303F30272
:103B880001300310F10CF00CFF3E031DC52D013070
:103B9800F502031DD02DD12DB42D76080319D52D8E
:103BA800D62DDB2DF209F309F20A0319F30A73087B
:103BB800F1007208F0000800831603138801081149
:103BC800881000300A168A15CE220A168A15A630E1
:103BD800F400F40BED2D000003300A168A15B42208
:103BE8000A168A150730F5007D30F400F40BFA2D1B
:103BF800F50BFA2D03300A168A15B4220A168A150F
:103C08000F30F5004730F400F40B082EF50B082EA2
:103C18000D2E03300A168A15B4220A168A150230A8
:103C28000A168A15B4220A168A1502300A168A1547
:103C3800B4220A168A1508300A168A15B4220A16FA
:103C48008A1500300A168A15B4220A168A150C300D
:103C58000A168A15B4220A168A1500300A168A1519
:103C6800B4220A168A1506300A168A15B4220A16CC
:103C78008A1508000030FC000030FB000030FA0014
:103C88000030F900730872047104700403194D2E92
:103C98004E2E9B2EFD01FD0A5E2E0130F80003100A
:103CA800F00DF10DF20DF30DF80B532E0130F80065
:103CB8007808FD07F31F612E622E512E0130F8009F
:103CC8000310F90DFA0DFB0DFC0DF80B642E7308AB
:103CD8007702031D792E72087602031D792E71086A
:103CE8007502031D792E70087402031C7C2E7D2E2C
:103CF8008C2E7008F4027108031C710FF50272080B
:103D0800031C720FF6027308031C730FF702791471
:103D180001300310F30CF20CF10CF00CFF3E031D04
:103D28008D2E0130FD02031D9A2E9B2E622E7C08DB
:103D3800F3007B08F2007A08F1007908F000080027
:103D480000307005F80000307105F9008030720508
:103D5800FA007F307305FB007B087A047904780445
:103D6800031DB72EB82EC02E0030F3000030F2002D
:103D78000030F1000030F00000307405F800003029
:103D88007505F90080307605FA007F307705FB006D
:103D98007B087A0479047804031DD32ED42EDC2EF4
:103DA8000030F7000030F6000030F5000030F40075
:103DB800F31FDF2EE02E042F0030F8000030F9004A
:103DC8000030FA008030FB007008F8027108031C0C
:103DD800710FEF2EF02EF9027208031C720FF52EE8
:103DE800F62EFA027308031C730FFB2EFC2EFB023F
:103DF8007B08F3007A08F2007908F1007808F000EF
:103E0800F71F072F082F2C2F0030F8000030F9007B
:103E18000030FA008030FB007408F8027508031CB3
:103E2800750F172F182FF9027608031C760F1D2F10
:103E38001E2FFA027708031C770F232F242FFB026B
:103E48007B08F7007A08F6007908F5007808F4008E
:103E58008030F3068030F70677087302031D3E2F83
:103E680076087202031D3E2F75087102031D3E2F4E
:103E7800740870020318412F422F442F0310452F56
:103E880003140800F800780803194B2F4C2F602FF3
:103E9800F31F4F2F502F602F7009FA007109FB0094
:103EA8007209FC007309FD00FA0A0319FB0A0319D9
:103EB800FC0A0319FD0A682F7308FD007208FC004C
:103EC8007108FB007008FA0073087204710470042A
:103ED800031D6F2F702F792F0030F3000030F20090
:103EE8000030F1000030F000FF2F9630F400740825
:103EF800F9008B2F0130F4007408F9070130031022
:103F0800FD0CFC0CFB0CFA0CFF3E031D832FFE304E
:103F18007D05031D902F912F7E2FAD2F0130F400CA
:103F28007408F9070130FA07003003180130FB075D
:103F3800003003180130FC07003003180130FD077A
:103F480001300310FD0CFC0CFB0CFA0CFF3E031DAA
:103F5800A52FFF307D05031DB22FB32F922FBF2F42
:103F68000130F9020130F4000310FA0DFB0DFC0DCD
:103F7800FD0DF40BB82FFC1BC22FC32FC92F023025
:103F880079020318C82FC92FB42F7918CC2FCD2F39
:103F9800D52FFF30FA05FF30FB057F30FC05FF30D9
:103FA800FD050310F90C7908F400F501F601F70195
:103FB80018300310F40DF50DF60DF70DFF3E031D37
:103FC800DD2F7408FA047508FB047608FC047708EA
:103FD800FD0478080319F12FF22FF72FF31FF52F9F
:103FE800F62FF72FFD177D08F3007C08F2007B08F9
:083FF800F1007A08F000080056
:02400E00793FF8
:00000001FF
