:020000040000FA
:060000000A128A110C280F
:10000800FE00030EF1000A08F2000A128A111428F1
:100018000A128A110F28F30183010A128A1148284B
:10002800831203138C1E19281A282D281A08F00089
:100038007008F30031307306031D2328242825286F
:10004800061432307306031D2A282B282C28061084
:100058008C1272088A00710E8300FE0E7E0E090053
:1000680083160313181519309900181283120313F5
:10007800981783160313071787178C160B178B17F8
:1000880083120313181608000A128A1134200A1260
:100098008A118316031306108312031306105328BC
:0600A8000A128A110C2867
:02400E00713F00
:00000001FF
