:020000040000FA
:060000000A128A110C280F
:10000800FE00030EF1000A08F2000A128A11BA284B
:100018000A128A110F28F90183010A128A11142879
:100028000A128A11A6200A128A11831603130810CD
:100038008810831203130810881497151715831650
:10004800031307117C3092008312031312149210C9
:10005800121531307906031D322833283D28013026
:10006800831203138806023088063330F7007708B6
:10007800F90032307906031D422843284B28003006
:10008800F300F4000A128A1185200A128A1133300B
:100098007906031D502851285A28FA30F3000030F9
:1000A800F4000A128A1185200A128A11343079065E
:1000B800031D5F28602869287730F3000130F400B9
:1000C8000A128A1185200A128A1135307906031D11
:1000D8006E286F287828F430F3000130F4000A12F3
:1000E8008A1185200A128A110D30F800FB30F700BA
:1000F800F70B7C28F80B7C2881282D280A128A11F6
:100108000C280430740200300319730203188D2878
:100118008E28A5287318912895288312031317167B
:10012800982883120313171297127408F60073089D
:10013800F5000310F60CF50C0310F60CF50C750819
:100148009500080083160313181519309900181222
:1001580083120313981783160313071787178C1630
:100168000B178B1783120313181608008312031337
:100178008C1EBF28C028C5281A08F0007008F9008E
:100188008C1272088A00710E8300FE0E7E0E090022
:02400E00713F00
:00000001FF
