:020000040000FA
:060000000A128A11EE2F26
:100E6C00FC346034DA34F2346634B634BE34E034F4
:100E7C00FE34F634F00083160313981C462F472FCC
:100E8C00412F700883120313990008008316031373
:100E9C00181519309900181283120313981783161A
:100EAC00031307178717981608007E088A007F0817
:100EBC0082000A128A115B270A128A118000840AA6
:100ECC0004087D0603190034FF0A0319FE0A5F2F7C
:100EDC000A128A114C270A128A1183120313AA01CF
:100EEC00203084002B30F1000408F2000A30F300AB
:100EFC007108840083130008F400F10A720884005E
:100F0C0074088000F20AF30B7E2F831603138601FC
:100F1C008312031386010130831603138800831296
:100F2C00031388010A302A02031C9D2F9E2F9F2F2A
:100F3C00AA01881EA22FA32FB42F0130F100710833
:100F4C00AA070330F3008A30F2005530F100F10BA0
:100F5C00AD2FF20BAD2FF30BAD2FB42F8312031368
:100F6C00081FB92FBA2FC92F0130AA020330F30082
:100F7C008A30F2005530F100F10BC22FF20BC22F68
:100F8C00F30BC22FC92F83120313881FCE2FCF2F21
:100F9C00E22F2A080A128A1140270A128A110330FA
:100FAC00F3008A30F2005530F100F10BDB2FF20B1D
:100FBC00DB2FF30BDB2FE22F831203132A08203EC7
:100FCC008400831300088600982F0A128A110028C7
:100FDC0083133530FD000730FE003630FF002B3018
:100FEC0084000A128A115F270A128A1183010A12DD
:040FFC008A116E2FB9
:02400E00713F00
:00000001FF
