:020000040000FA
:060000000A128A11EE2F26
:100E4200F634FE34E034BE34B6346634F234DA3486
:100E52006034FC347E088A007F0882000A128A11FC
:100E62002B270A128A118000840A04087D060319BE
:100E72000034FF0A0319FE0A2F2F203084002B3082
:100E8200F0000408F1000A30F200700884008313B5
:100E92000008F300F00A7108840073088000F10A68
:100EA200F20B462F83120313AA0183160313860142
:100EB200831203138601831603138701831203131C
:100EC200870187142A08203E8400831300088600C5
:100ED2000630F2001330F100AD30F000F00B6F2F4E
:100EE200F10B6F2FF20B6F2F762F0130F00070088D
:100EF20083120313AA070A302A02031C812F822FAE
:100F0200622FAA01871007152A08203E8400831346
:100F1200000886000630F2001330F100AD30F00018
:100F2200F00B912FF10B912FF20B912F982F013093
:100F3200F000700883120313AA070A302A02031C66
:100F4200A32FA42F842FAA01071187152A08203E58
:100F520084008313000886000630F2001330F1008B
:100F6200AD30F000F00BB32FF10BB32FF20BB32F18
:100F7200BA2F0130F000700883120313AA070A3057
:100F82002A02031CC52FC62FA62FAA0187110715F7
:100F92002A08203E84008313000886000630F200EF
:100FA2001330F100AD30F000F00BD52FF10BD52F3F
:100FB200F20BD52FDC2F0130F000700883120313DF
:100FC200AA070A302A02031CE72FE82FC82FAA011A
:100FD2000711622F0A128A11002883133530FD008F
:100FE2000730FE002130FF002B3084000A128A11E4
:0E0FF2002F270A128A1183010A128A113E2F3C
:02400E00713F00
:00000001FF
