:020000040000FA
:060000000A128A110E280D
:10000800FE00030EF1000408F2000A08F3000A12C9
:100018008A1124280A128A11112883132A30FD0014
:100028000030FE007430FF00203084000A128A116C
:1000380056200A128A11F40183010A128A116528CE
:10004800831203138C1E29282A2835281A08F00041
:100058007008F4007408203E8400831300088600AA
:100068008C1273088A0072088400710E8300FE0ED9
:100078007E0E0900831603131815193099001812FB
:1000880083120313981783160313071787178C1601
:100098000B178B1783120313181608007E088A00A3
:1000A8007F0882000A128A1152200A128A118000DF
:1000B800840A04087D0603190034FF0A0319FE0A9E
:1000C80056280A128A113E200A128A11831603132F
:1000D800860183120313860170280A128A110E28DA
:1000E800FC346034DA34F2346634B634BE34E03486
:0400F800FE34F634A8
:02400E00713F00
:00000001FF
