:020000040000FA
:060000000A128A11FC2F18
:100898008316031386018312031386018316031339
:1008A80007118715831203131012901290100A1261
:1008B8008A119A240A128A11831203133D08C6006A
:1008C8003C08C5003B08C4003A08C3000A128A1154
:1008D800E9240A128A11831203134308CE004E0832
:1008E800CF000B304F0203187A2C7B2C7D2C06147A
:1008F8005B2C0B304F02031C822C832C8C2C103069
:100908004F020318882C892C8C2C061086145B2C1B
:1009180010304F02031C912C922C952C8610061532
:100928005B2C86015B2C0A128A11002883120313A0
:100938008E018F010715023083120313BE00BE0B10
:10094800A32C0000831203130711871DAC2CAD2CB8
:10095800A92C10148719B12CB22CAE2C10104230CF
:10096800A3006B30A2004730A100AE30A0000E08F3
:10097800F0000F08F100F201F30100300A128A11A9
:1009880065250A128A11730883120313A7007208D7
:10099800A6007108A5007008A4000A128A111F2673
:1009A8000A128A11831203132308C2002208C10005
:1009B8002108C0002008BF004208BD004108BC0053
:1009C8004008BB003F08BA00080003108312031355
:1009D800450D460DC7004708CD004D08031DF52CF1
:1009E800F62CFF2C0030C6000030C5000030C400D3
:1009F8000030C300642D4308C7004408C8004508F8
:100A0800C9004608CA001F300310CA0CC90CC80C1C
:100A1800C70CFF3E031D082D4708CB004B08CC0030
:100A2800C517FF30C305FF30C405FF30C5050030CA
:100A3800C6059630CD02CD1F222D232D3D2D4D0804
:100A4800803A973E0318292D2A2D2B2DF62C01309C
:100A58000310C60CC50CC40CC30CFF3E031D2C2D83
:100A68000130C7004708CD07031D3B2D3C2D2B2D1A
:100A7800542D20304D02031C422D432D4F2DF62CB2
:100A88000130C7000310C30DC40DC50DC60DC70B3B
:100A9800462D0130CD024D08031D532D542D442DF4
:100AA8004C080319582D592D642DC309C409C509CB
:100AB800C609C30A0319C40A0319C50A0319C60AD1
:100AC8000800F800780803196A2D6B2D7F2DF31F95
:100AD8006E2D6F2D7F2D7009FA007109FB007209C8
:100AE800FC007309FD00FA0A0319FB0A0319FC0A42
:100AF8000319FD0A872D7308FD007208FC007108B0
:100B0800FB007008FA007308720471047004031D76
:100B18008E2D8F2D982D0030F3000030F20000301C
:100B2800F1000030F0001E2E9630F4007408F90031
:100B3800AA2D0130F4007408F90701300310FD0CE8
:100B4800FC0CFB0CFA0CFF3E031DA22DFE307D05AC
:100B5800031DAF2DB02D9D2DCC2D0130F400740850
:100B6800F9070130FA07003003180130FB0700309D
:100B780003180130FC07003003180130FD0701306D
:100B88000310FD0CFC0CFB0CFA0CFF3E031DC42DDE
:100B9800FF307D05031DD12DD22DB12DDE2D013065
:100BA800F9020130F4000310FA0DFB0DFC0DFD0DE8
:100BB800F40BD72DFC1BE12DE22DE82D0230790234
:100BC8000318E72DE82DD32D7918EB2DEC2DF42DF6
:100BD800FF30FA05FF30FB057F30FC05FF30FD05CF
:100BE8000310F90C7908F400F501F601F701183043
:100BF8000310F40DF50DF60DF70DFF3E031DFC2D4A
:100C08007408FA047508FB047608FC047708FD04E8
:100C180078080319102E112E162EF31F142E152ED8
:100C2800162EFD177D08F3007C08F2007B08F10002
:100C38007A08F00008008312031327088039A800F7
:100C48002808B1002708A8002807A9002908B80023
:100C5800A61F2F2E302E312E381438080319352EA2
:100C6800362E462E380A031D3A2E3B2E432E0030D0
:100C7800A7000030A6000030A5000030A400A61789
:100C8800A7014E2E0030A7000030A6000030A500B6
:100C98000030A40023088039A8002808B1062308DA
:100CA800A8002807A9002908B900A21F5C2E5D2EFC
:100CB8005E2E391439080319622E632E732E390AF1
:100CC800031D672E682E702E0030A3000030A2008E
:100CD8000030A1000030A000A217A3017B2E003035
:100CE800A3000030A2000030A1000030A0002308BB
:100CF800220421042004031D822E832E9C2E003002
:100D0800A7000030A6000030A5000030A400803005
:100D1800A6047F30A7043108A8002808A7042708DC
:100D2800A3002608A2002508A1002408A000FB2F84
:100D38003808031DA02EA12EAA2E0030A3000030D3
:100D4800A2000030A1000030A000FB2F3808A80046
:100D5800A9012908AB0039082802AA00031CAB0323
:100D68002A087F3EB2002B080318013E003EB3005C
:100D78002708B0002608AF002508AE002408AD00FB
:100D88000030A7000030A6000030A5000030A40005
:100D98000030B7000030B6000030B5000030B400B5
:100DA800B901202F39080319DA2EDB2EFB2E01306A
:100DB800A8000310AD0DAE0DAF0DB00DA80BDD2EC4
:100DC8000130A8000310A40DA50DA60DA70DA80BB2
:100DD800E62EB71FF02EF12EF22E24140130A800B3
:100DE8000310B40DB50DB60DB70DA80BF42E2308DE
:100DF8003002031D092F22082F02031D092F210885
:100E08002E02031D092F20082D02031C0C2F0D2F65
:100E18001C2F37172008AD022108031C210FAE0232
:100E28002208031C220FAF022308031C230FB00261
:100E38000130A8002808B9071A303902031C252FE9
:100E4800262FD62E30082F042E042D0403192D2FFB
:100E58002E2F4D2F34144D2F0130A8000310A40D50
:100E6800A50DA60DA70DA80B322FB71F3C2F3D2FA0
:100E78003E2F24140130A8000310B40DB50DB60D93
:100E8800B70DA80B402FFF30B2070318B30AFF3085
:100E9800B307A61F502F512F302FB901B71F552F59
:100EA800562F722FFF303405A800FF303505A900F2
:100EB800FF303605AA007F303705AB002B082A041F
:100EC800290428040319692F6A2F6D2FB901B90A5B
:100ED800722F241C702F712F722F6A2F3908031953
:100EE800762F772FA82F0130A40700300318013080
:100EF800A507003003180130A60700300318013099
:100F0800A707271C882F892FA82F2408A8002508A1
:100F1800A9002608AA002708AB000130AC002B0D59
:100F2800AB0CAA0CA90CA80CAC0B932F2B08A70090
:100F38002A08A6002908A5002808A4000130B2073D
:100F48000318B30A0030B3073308803AFF00803033
:100F58007F02031DB12FFF303202031CB42FB52FBF
:100F6800C32FFF3083120313B2000030B3000030E8
:100F7800A7000030A6000030A5000030A4008312AE
:100F880003133308803AFF0080307F02031DCE2F01
:100F9800013032020318D12FD22FDF2F831203130F
:100FA800B201B3010030A7000030A6000030A50050
:100FB8000030A400B101831203133208A8002808E6
:100FC800B800381CE82FE92FEB2FA617EF2F7F303A
:100FD800A8002808A6053808A8000310280CA900AE
:100FE8002908A7003108A8002808A704932E08009C
:080FF80083010A128A114C2C3E
:02400E00FF3F72
:00000001FF
